:100000008A110428FF3FFF3F8A1106288A118021A8
:100010008A11BA0083132030840036308A1172218D
:100020008A11FC01FD0183018A113229F50075084E
:100030008A11FD208A11F6017608203E8400831380
:100040000003031D24282528402840308312031371
:1000500086000630F400F40B2B2800005030831289
:10006000031386000630F400F40B3428000010302F
:100070008312031386000630F400F40B3D280000C1
:100080007608203E840083130008031D4828492871
:100090005A2840308312031386000630F400F40B14
:1000A0004F2800008312031386010630F400F40B7E
:1000B000572800000130F4007408F6070830760273
:1000C000031C632864281C2883160313061640307B
:1000D0008312031386000630F400F40B6D28000031
:1000E000831203130608F40004300310F40CFF3EDF
:1000F000031D752874080139FC000630F400F40B68
:100100007F2800008316031386017C0803198928C1
:100110008A28852808004E30FB00EB30FA00FA0BE5
:100120008F28FB0B8F2803308A117A218A111A300D
:10013000FB00F830FA00FA0B9B28FB0B9B28000011
:1001400003308A117A218A11C730FA00FA0BA628E7
:10015000A92803308A117A218A11C730FA00FA0BD4
:10016000AF28B22802308A117A218A11C730FA00EA
:10017000FA0BB828BB2800308A117A218A1108307E
:100180008A117A218A11C730FA00FA0BC528C828CB
:1001900000308A117A218A1101308A117A218A115C
:1001A000C730FA00FA0BD228D52802308A117A21FA
:1001B0008A1108308A117A218A11C730FA00FA0BA5
:1001C000DF28E22800308A117A218A1108308A114A
:1001D0007A218A11C730FA00FA0BEC28EF28003098
:1001E0008A117A218A110F308A117A218A11C73037
:1001F000FA00FA0BF928FC280800F100F201F20AD3
:10020000F3017308283E840071087205F000730A38
:100210000B290310F00CFF3E031D092970088313FE
:1002200080007208F0007007F2000130F0007008E2
:10023000F30708307302031C1E291F2901298312AA
:1002400003132F08A0002E08A1002D08A2002C08DF
:10025000A3002B08A4002A08A5002908A600280846
:10026000A7000800831203179E019F0104309A0023
:100270008312031386018A114E218A1140308A119C
:1002800016208A11F801F90100308A118B208A1199
:100290008A1169218A114B298A11042883160313B4
:1002A000860150308312031386008530F000F00B76
:1002B000572940308312031386000530F000F00BFD
:1002C0005F298312031386018530F000F00B662945
:1002D000080050308312031386008530F000F00BC5
:1002E0006F29080064008001840A040603190034A1
:1002F00004067329F70077088A1116208A1108006E
:100300006434FF3FFF3FFF3FFF3FFF3FFF3FFF3FA3
:10031000FF3FFF3FFF3FFF3FFF3FFF3FFF3FFF3FED
:10032000FF3FFF3FFF3FFF3FFF3FFF3FFF3FFF3FDD
:10033000FF3FFF3FFF3FFF3FFF3FFF3FFF3FFF3FCD
:02400E00E2309E
:00000001FF
